:1000000026C040C03FC03EC03DC0E5C03BC03AC076
:1000100039C038C037C036C035C0DCC126C1000089
:10002000000037000000000038000000000036002B
:10003000020202020202020202020102040810206D
:100040002004100801020000040000000000112438
:100050001FBECFE5D2E0DEBFCDBF10E0A0E6B0E02E
:10006000EEE8FCE002C005900D92A636B107D9F784
:1000700020E0A6E6B0E001C01D92A43CB207E1F783
:10008000C6D103C6BDCF823081F018F4813051F063
:100090000895833019F0843009F008958CB58F7D70
:1000A0008CBD08958AB58F7702C08AB58F7D8ABDD1
:1000B00008951F93CF93DF93282F30E0F901EC5B75
:1000C000FF4F8491F901E65CFF4FD491F901E05DA7
:1000D000FF4FC491CC23C1F0162F8111D4DFEC2F38
:1000E000F0E0EE0FFF1FEC5DFF4FA591B4918FB7CD
:1000F000F894111105C09C91ED2FE095E92302C001
:10010000EC91ED2BEC938FBFDF91CF911F91089570
:10011000CF93DF9390E0FC01E65CFF4F2491FC015C
:10012000E05DFF4F8491882361F190E0880F991F73
:10013000FC01E25EFF4FC591D491FC01EC5DFF4FE5
:10014000A591B491611109C09FB7F8948881209559
:1001500082238883EC912E230BC0623061F49FB719
:10016000F8943881822F809583238883EC912E2BFD
:100170002C939FBF06C08FB7F894E8812E2B28835D
:100180008FBFDF91CF910895E0916600F0E0E05AD3
:10019000FF4F808190918E009031E1F3E0918F00CC
:1001A000F0E0E958FF4F808380918F008F5F8F7060
:1001B00080938F0080918E008F5F80938E0080915E
:1001C00066008F5F8093660080916600863010F035
:1001D0001092660008951F920F920FB60F9211248D
:1001E0002F933F938F939F93AF93BF9380919900E9
:1001F00090919A00A0919B00B0919C0030918D004D
:1002000026E0230F2D3720F40296A11DB11D05C055
:1002100029E8230F0396A11DB11D20938D00809323
:10022000990090939A00A0939B00B0939C008091BA
:10023000890090918A00A0918B00B0918C0001966A
:10024000A11DB11D8093890090938A00A0938B001B
:10025000B0938C00BF91AF919F918F913F912F915F
:100260000F900FBE0F901F9018951F920F920FB610
:100270000F9211242F933F934F935F936F937F932C
:100280008F939F93AF93BF93EF93FF9380918700DA
:10029000909188008230910509F459C028F40097A4
:1002A00061F0019779F185C08430910509F458C057
:1002B00030F1059709F45DC07CC08FB1882331F01F
:1002C0008FB186959091930089133EC0789B67C04B
:1002D000E0919700F0919800309739F08091960066
:1002E000882319F0809196000995E0919400F0918F
:1002F0009500309709F0099581E090E052C08FB1E8
:10030000811122C080918E008823D1F0E09190006D
:10031000F0E0E958FF4F80818FB9809190008F5FA6
:100320008F708093900080918E00815080938E001A
:1003300082E090E09093880080938700B89A17C07D
:10034000B8981FB88EE78EB988EA8DB910C083E0DF
:1003500090E09093880080938700B8981FB827C0DA
:1003600085E090E09093880080938700B89880E7BC
:100370001FC080919600803190F4E09191008FB180
:10038000F0E0E959FF4F8083809191008F5F8F707B
:1003900080939100809196008F5F8093960084E017
:1003A00090E090938800809387001FB8B89A8EE7FA
:1003B0008EB9FF91EF91BF91AF919F918F917F91F6
:1003C0006F915F914F913F912F910F900FBE0F90C2
:1003D0001F9018951F920F920FB60F9211248F93B2
:1003E0001092880010928700B898B29B02C0B09B10
:1003F000FCCFB09902C088EF01C088EA8DB980EFC8
:100400008EB98F910F900FBE0F901F901895789412
:100410008AB582608ABD8AB581608ABD83B78260F1
:1004200083BF83B7816083BF89B7826089BF80B78C
:10043000826080BF80B7816080BF329A319A3098E5
:10044000379A8CB580648CBD109292001092910006
:10045000109296001092900010928F0010928E00D1
:1004600083E18093930087B3856087BBC29AC09A6B
:10047000B89888EA8DB980EF8EB984EC90E09093BB
:1004800095008093940061E084E042DE60E083E0C8
:100490003FDE61E083E00DDE87EB93EBA8E0B0E4A4
:1004A0008093B9009093BA00A093BB00B093BC00B6
:1004B0001092A8001092A7001092C1001092A900FB
:1004C0001092AA001092AB001092AC001092B100F2
:1004D0001092B2001092B3001092B4001092BD00BE
:1004E0001092BE001092BF001092C000C091970001
:1004F000D091980022242A94312C00E010E020971B
:1005000041F0759B06C080919600882311F0FE0192
:1005100009958FB7F894C0909900D0909A00E09018
:100520009B00F0909C008FBF80919F009091A00055
:10053000A091A100B091A200A7019601281B390B40
:100540004A0B5B0B203131054105510508F4EAC027
:10055000E7E4F0E08491EDE3F0E0B490E3E3F0E071
:10056000A490AA2099F081118EDDEA2DF0E0EE0F23
:10057000FF1FE65DFF4FA591B4918C91B82231E049
:1005800020E009F430E0832F922F02C080E090E059
:10059000F1E08F2720919D0030919E0028173907A8
:1005A00019F021E0009709F420E090939E008093D9
:1005B0009D00222309F4B6C0C0929F00D092A000F3
:1005C000E092A100F092A2003092C3002092C200FB
:1005D0008091C1008F5F8093C1004090B90050901E
:1005E000BA006090BB007090BC002091BD003091BB
:1005F000BE004091BF005091C000C301B20127D19D
:100600004B015C016093BD007093BE008093BF00FE
:100610009093C00020E030E0A901A4D220E030E0B7
:1006200040E05FE387FD04C0C501B40110D103C001
:10063000C501B4010BD1D7D1609362007093630000
:10064000C701B60101D26093B5007093B6008093E4
:10065000B7009093B8008091C100823008F462C066
:100660008091B1009091B200A091B300B091B4001C
:10067000A7019601281B390B4A0B5B0BCA01B90174
:10068000E3D19B01AC016093AD007093AE00809309
:10069000AF009093B00060E070E08AE794E43BD153
:1006A00020E030E040E752E461D29B01AC0160936E
:1006B000A9007093AA008093AB009093AC00C09205
:1006C000B100D092B200E092B300F092B400109268
:1006D000C100C301B2014AD220E030E041E655E456
:1006E00045D220E030E04AE754E415D14B015C01EB
:1006F00020E030E0A90136D220E030E040E05FE3C6
:1007000087FD04C0C501B401A2D003C0C501B40176
:100710009DD069D16093A7007093A800609360009A
:1007200070936100C701B6018FD14B015C0120912C
:10073000B5003091B6004091B7005091B80086D016
:1007400020E030E84BEB54E40DD21816C4F41092BC
:10075000A9001092AA001092AB001092AC00109267
:10076000A8001092A7008092B5009092B600A092C7
:10077000B700B092B80010926000109261008091B2
:10078000A3009091A400A091A500B091A600A7019C
:100790009601281B390B4A0B5B0B263031054105AE
:1007A000510508F44DC08091C2009091C300181605
:1007B00019062CF403979093C3008093C200A09075
:1007C000C200B090C30061E084E0A2DCA114B104D7
:1007D00011F460E005C03FEFA316B10421F461E01D
:1007E00084E067DC25C0E8E4F0E08491823089F0A1
:1007F00038F48130C1F48AB580688ABDA9BC18C0BC
:10080000833061F0843079F48CB580628CBDABBCF0
:100810000FC08AB580628ABDA8BC0AC08CB5806250
:100820008CBDAEBC05C0F0E8AF16B104C4F6D1CFA4
:10083000C092A300D092A400E092A500F092A6007E
:100840000115110509F45BCEDBDB57CE5058BB27F1
:10085000AA270ED04DC13ED130F043D120F031F463
:100860009F3F11F41EF433C10EF4E095E7FB29C15C
:10087000E92F4FD180F3BA176207730784079507F2
:1008800018F071F49EF567C10EF4E0950B2EBA2FA7
:10089000A02D0B01B90190010C01CA01A001112486
:1008A000FF27591B99F0593F50F4503E68F11A1632
:1008B000F040A22F232F342F4427585FF3CF4695C3
:1008C00037952795A795F0405395C9F77EF41F16E5
:1008D000BA0B620B730B840BBAF09150A1F0FF0FAF
:1008E000BB1F661F771F881FC2F70EC0BA0F621F9B
:1008F000731F841F48F4879577956795B795F7958B
:100900009E3F08F0B3CF9395880F08F09927EE0F1C
:100910009795879508950CD0EBC0E3D040F0DAD0DE
:1009200030F021F45F3F19F0CCC0511115C1CFC098
:10093000F0D098F39923C9F35523B1F3951B550BC8
:10094000BB27AA2762177307840738F09F5F5F4FA2
:10095000220F331F441FAA1FA9F333D00E2E3AF0E3
:10096000E0E830D091505040E695001CCAF729D0FD
:10097000FE2F27D0660F771F881FBB1F261737074C
:100980004807AB07B0E809F0BB0B802DBF01FF277C
:1009900093585F4F2AF09E3F510568F092C0DCC02B
:1009A0005F3FECF3983EDCF3869577956795B795B6
:1009B000F7959F5FC9F7880F911D9695879597F9D1
:1009C0000895E1E0660F771F881FBB1F621773074A
:1009D0008407BA0720F0621B730B840BBA0BEE1F5F
:1009E00088F7E095089504D06894B111B5C00895D2
:1009F00098D088F09F5790F0B92F9927B751A0F061
:100A0000D1F0660F771F881F991F1AF0BA95C9F7A2
:100A100012C0B13081F09FD0B1E008959CC0672F23
:100A2000782F8827B85F39F0B93FCCF38695779552
:100A30006795B395D9F73EF490958095709561953B
:100A40007F4F8F4F9F4F0895E89409C097FB3EF466
:100A500090958095709561957F4F8F4F9F4F99230B
:100A6000A9F0F92F96E9BB279395F6958795779589
:100A70006795B795F111F8CFFAF4BB0F11F460FF49
:100A80001BC06F5F7F4F8F4F9F4F16C0882311F0A1
:100A900096E911C0772321F09EE8872F762F05C0B5
:100AA000662371F096E8862F70E060E02AF09A9550
:100AB000660F771F881FDAF7880F9695879597F945
:100AC000089597F99F6780E870E060E008959FEFD0
:100AD00080EC089500240A941616170618060906D5
:100AE000089500240A9412161306140605060895A4
:100AF000092E0394000C11F4882352F0BB0F40F42C
:100B0000BF2B11F460FF04C06F5F7F4F8F4F9F4F6B
:100B1000089557FD9058440F551F59F05F3F71F0ED
:100B20004795880F97FB991F61F09F3F79F0879554
:100B30000895121613061406551FF2CF4695F1DFDD
:100B400008C0161617061806991FF1CF869571056D
:100B5000610508940895E894BB2766277727CB01A1
:100B600097F908956ED008F48FEF08950AD0C0CF9A
:100B7000B1DF28F0B6DF18F0952309F0A2CFA7CF98
:100B8000EBCFC7DFA8F39923D9F35523C9F3950F0A
:100B900050E0551FAA27EE27FF27BB270024089403
:100BA000679520F4E20FF31FB41F0A1E220F331FB4
:100BB000441FAA1F6695A9F7779530F4F30FB41F69
:100BC0000A1E121E08F46395330F441FAA1F221F2A
:100BD000769599F7879520F4B40F0A1E121E631FAD
:100BE000440FAA1F221F331F8695A9F7862F712D48
:100BF000602D11249F5750408AF0E1F088234AF07D
:100C0000EE0FFF1FBB1F661F771F881F91505040BC
:100C1000A9F79E3F510570F054CF9ECF5F3FECF394
:100C2000983EDCF3869577956795B795F795E795A8
:100C30009F5FC1F7FE2B880F911D9695879597F9B9
:100C40000895990F0008550FAA0BE0E8FEEF16165D
:100C50001706E807F907C0F012161306E407F507B0
:100C600098F0621B730B840B950B39F40A2661F024
:100C7000232B242B252B21F408950A2609F4A140C7
:0E0C8000A6958FEF811D811D0895F894FFCF7A
:060C8E000000000011222D
:00000001FF
